:100000000C9434000C9451000C9451000C94510049
:100010000C9451000C9451000C9451000C9451001C
:100020000C9451000C9451000C9451000C9451000C
:100030000C9451000C9451000C9451000C945100FC
:100040000C9451000C9451000C9451000C945100EC
:100050000C9451000C9451000C9451000C945100DC
:100060000C9451000C94510011241FBECFEFD8E026
:10007000DEBFCDBF11E0A0E0B1E0EEEBF1E002C0E9
:1000800005900D92AC32B107D9F711E0ACE2B1E0C6
:1000900001C01D92A233B107E1F70E9491000C94B8
:1000A000DD000C9400001F93182F8A3011F48DE0AE
:1000B000FADF8091C00085FFFCCF1093C60080E07E
:1000C00090E01F910895E2ECF0E080818F7B8083C7
:1000D00080818F77808380818F7E808380818F7DF8
:1000E00080838081877F808380818260808380811C
:1000F00084608083A1ECB0E08C918B7F8C93E0ECEA
:10010000F0E080818260808380E190E09093C50080
:100110008093C4008C9188608C938C9180618C93C7
:100120000895CF93DF93CFDF8EE191E090932F017D
:1001300080932E01C0E9D1E080E091E009D088E809
:1001400093E1EC2FFD2F3197F1F70197D1F7F4CF21
:100150000F931F93CF93DF938C01E0912E01F091C9
:100160002F01838181FF21C0C0E0D0E00DC0E0916C
:100170002E01F0912F0120853185BF01F9010995EC
:10018000892B11F0CFEFDFEFF80181918F018823E8
:1001900071F7E0912E01F0912F01208531858AE0E1
:1001A000BF01F9010995892B11F0CFEFDFEFCE01E7
:0E01B000DF91CF911F910F910895F894FFCF2A
:1001BE0048656C6C6F2C20776F726C642021212C3B
:1001CE0057696E646F77732031302041490000000B
:0C01DE00000200000000530000000000C0
:00000001FF
