:100000000C9434000C9451000C9451000C94510049
:100010000C9451000C9451000C9451000C9451001C
:100020000C9451000C9451000C9451000C9451000C
:100030000C9451000C9451000C9451000C945100FC
:100040000C9451000C9451000C9451000C945100EC
:100050000C9451000C9451000C9451000C945100DC
:100060000C9451000C94510011241FBECFEFD8E026
:10007000DEBFCDBF11E0A0E0B1E0E4EBF1E002C0F3
:1000800005900D92AE31B107D9F721E0AEE1B1E0B4
:1000900001C01D92A432B207E1F70E9492000C94B5
:1000A000D8000C940000CF93C82F8A3019F48DE04B
:1000B0000E9453008091C00085FFFCCFC093C60012
:1000C00080E090E0CF910895E2ECF0E080818F7BBA
:1000D000808380818F77808380818F7E8083808101
:1000E0008F7D80838081877F808380818260808311
:1000F000808184608083E1ECF0E080818B7F80836D
:10010000A0ECB0E08C9182608C938FEC90E09093A7
:10011000C5008093C4008081886080838081806175
:10012000808308950E94640080E091E09093210113
:10013000809320018EE091E00E94A8002FEF89E6D5
:1001400098E1215080409040E1F700C00000F2CFDC
:100150000F931F93CF93DF93E0912001F091210142
:10016000238121FF1BC08C01D0E0C0E0F801819108
:100170008F016091200170912101DB011896ED91B2
:10018000FC911997882331F00995892B79F3DFEFDA
:10019000CFEFECCF8AE00995892B19F08FEF9FEF15
:1001A00002C08D2F9C2FDF91CF911F910F91089549
:0401B000F894FFCFF1
:1001B4000000000200000000530000000000486539
:0E01C4006C6C6F2C20776F726C642021210010
:00000001FF
