:1000000010E0A0E6B0E0ECE7F2E003C0C89531965E
:100010000D92A438B107D1F720E0A4E8B0E001C008
:100020001D92AA38B207E1F7CF93C82F8A3011F496
:100030008DE0FADF8091C00085FFFCCFC093C60041
:1000400080E090E0CF9108950F931F93CF93DF93BB
:1000500000D000D0CDB7DEB769837A838B839C83D1
:1000600082EC90E022EC30E0E22FF32F20812F7B16
:10007000E82FF92F208382EC90E022EC30E0E22F91
:10008000F32F20812F77E82FF92F208382EC90E047
:1000900022EC30E0E22FF32F20812F7EE82FF92F82
:1000A000208382EC90E022EC30E0E22FF32F2081DD
:1000B0002F7DE82FF92F208382EC90E022EC30E0B6
:1000C000E22FF32F2081277FE82FF92F208382EC66
:1000D00090E022EC30E0E22FF32F20812260E82F25
:1000E000F92F208382EC90E022EC30E0E22FF32F16
:1000F00020812460E82FF92F208381EC90E021EC0F
:1001000030E0E22FF32F20812B7FE82FF92F20837F
:1001100080EC90E020EC30E0E22FF32F2081226091
:10012000E82FF92F208304EC10E080E894E8AEE19A
:10013000B0E029813A814B815C81682F792F8A2F29
:100140009B2F41D0B52FA42F932F822F0197E02F03
:10015000F12F9183808381EC90E021EC30E0E22F5D
:10016000F32F20812860E82FF92F208381EC90E085
:1001700021EC30E0E22FF32F20812061E82FF92FCE
:10018000208300000F900F900F900F90DF91CF9180
:100190001F910F91089560E875E280E090E054DFD0
:1001A00080E690E090938700809386008EE690E052
:1001B00031D02FEF89E698E1215080409040E1F75F
:1001C00000C00000F3CFA1E21A2EAA1BBB1BEA2F2E
:1001D000FB2F0DC0AA1FBB1FEE1FFF1FA217B307E7
:1001E000E407F50720F0A21BB30BE40BF50B661F29
:1001F000771F881F991F1A9469F7609570958095ED
:100200009095262F372F482F592F6A2F7B2F8E2F0F
:100210009F2F08950F931F93CF93DF93E091860054
:10022000F0918700238121FF1FC0082F192FD0E0F4
:10023000C0E0E02FF12F81910E2F1F2F60918600DB
:1002400070918700A62FB72F1896ED91FC91199702
:10025000882331F00995892B61F3DFEFCFEFE9CFE8
:100260008AE00995892B19F08FEF9FEF02C08D2F3F
:0C0270009C2FDF91CF911F910F910895FA
:10027C0000000002000000001400000000004865AF
:10028C006C6C6F2C20776F726C6421206C696272BD
:04029C006172790012
:00000001FF
